:020000040800F2
:100000000006002099010008A1010008A3010008D2
:10001000A5010008A7010008A901000800000000D0
:10002000000000000000000000000000AB0100081C
:10003000AD01000800000000AF010008B101000898
:10004000B3010008B3010008B3010008B3010008C0
:10005000B3010008B3010008B3010008B3010008B0
:10006000B3010008B3010008B3010008B3010008A0
:10007000B3010008B3010008B3010008B301000890
:10008000B3010008B3010008B3010008B301000880
:10009000B3010008B3010008B3010008B301000870
:1000A000B3010008B3010008B3010008B301000860
:1000B000B3010008B3010008B3010008B301000850
:1000C000B3010008B3010008B3010008B301000840
:1000D000B3010008B3010008B3010008B301000830
:1000E000B3010008B3010008B301000800F002F8F2
:1000F00000F042F814A696E8000CB244B344DA4586
:1001000001D100F039F8BAE80F000FA696E83000E8
:10011000A5EB040504EB0607AAEB0704A7F101070A
:100120004FEA15154FEA3414A4F10104AC4201D38F
:1001300000F022F813F0010F18BFFB1A43F001037F
:1001400000F001F8DBE718475C0400006C040000D5
:10015000704700000023002400250026103A28BF25
:1001600078C1FBD8520728BF30C148BF0B60704729
:100170001FB51FBD10B510BDDFF80CD0FFF7F8FF9D
:1001800000F0F0F900F02BF80050002003B4FFF766
:10019000F1FF03BC00F02CF80948804709480047EC
:1001A000FEE7FEE7FEE7FEE7FEE7FEE7FEE7FEE727
:1001B000FEE7FEE704480549054A064B7047000084
:1001C000FD040008ED0000080000002000060020EB
:1001D000000200200002002070477047704710B5F1
:1001E0000446AFF300802046BDE81040FFF7CEBFC5
:1001F00001491820ABBEFEE7260002007047000050
:1002000088B007900691002005900490039002901A
:10021000019000900698806800F00F000590069805
:10022000007AC006002806D5FFE7069841680598C1
:1002300008430590FFE70698007800284BD0FFE7B9
:1002400007980068019000200390FFE703980728B3
:100250003DD8FFE703990120884002900698008866
:100260000299084004900498029988422AD1FFE735
:1002700003988000029002990F2088400090009916
:100280000198884301900598029900FA01F10198BC
:100290000843019006988068282806D1FFE7039953
:1002A00001208840079948610BE00698806848283B
:1002B00006D1FFE703990120884007990861FFE70D
:1002C000FFE7FFE7FFE7039801300390BEE70198DF
:1002D00007990860FFE706980088B0F5807F50DB3B
:1002E000FFE707984068019000200390FFE703981C
:1002F000072842D8FFE7039800F108010120884051
:100300000290069800880299084004900498029987
:1003100088422DD1FFE703988000029002990F20B8
:1003200088400090009901988843019005980299AF
:1003300000FA01F101980843019006988068282886
:1003400008D1FFE7039800F10801012088400799D0
:100350004861FFE706988068482808D1FFE70398BE
:1003600000F108010120884007990861FFE7FFE7D5
:10037000FFE7039801300390B9E7019807994860B7
:10038000FFE708B07047000082B00190ADF802109E
:10039000BDF802000199086102B0704782B0019077
:1003A0000091009848B1FFE7019A41F21801C4F2A8
:1003B000020108681043086008E0019A41F2180140
:1003C000C4F20201086890430860FFE702B070477A
:1003D00080B500F001F880BD84B000200390029049
:1003E00041F20001C4F20201086840F48030086064
:1003F000FFE741F20000C4F20200006800F40030A0
:100400000290039801300390FFE7029900200190C9
:1004100039B9FFE70398B0F5A06018BF012001903B
:10042000FFE70198C0070028E3D1FFE741F2000091
:10043000C4F2020000688003002803D5FFE7012012
:10044000029002E000200290FFE70298012851D1BB
:10045000FFE742F20001C4F20201086840F0100018
:100460000860086820F007000860086840F0020093
:10047000086041F20401C4F20201009108680860BA
:1004800008680860086840F480600860086820F424
:100490007C100860086840F4E810086041F2000130
:1004A000C4F20201086840F080700860FFE741F282
:1004B0000000C4F2020000688001002801D4FFE7B8
:1004C000F5E741F20401C4F20201086820F00300DC
:1004D0000860086840F002000860FFE741F204008D
:1004E000C4F20200006800F00C00082801D0FFE709
:1004F000F4E700E0FFE704B07047000080B541F288
:100500000002C4F20202106840F00100106041F2E3
:100510000401C4F2020108680023CFF6FF0318406B
:10052000086010684FF6FF73CFF6F663184010604E
:10053000106820F480201060086820F4FE00086035
:1005400041F20801C4F202014FF41F000860FFF7F6
:100550003FFF4EF60851CEF200014FF000600860F8
:1005600080BD000080B588B0002007901020019069
:100570000121FFF713FF019806904FF400500390FC
:10058000ADF810000320059041F20000C4F2010014
:10059000029004A9FFF734FE02980399FFF7F4FED6
:1005A000FFE7FEE7B4050008000000200006000099
:0405B00054010008EA
:040000050800019955
:00000001FF
